:100000000C9461000C9473000C9473000C947300B6
:100010000C9473000C9473000C9473000C94730094
:100020000C9473000C9473000C9473000C94730084
:100030000C9473000C9473000C9473000C94730074
:100040000C94C7000C9473000C9473000C94730010
:100050000C9473000C9473000C9473000C94730054
:100060000C9473000C94730000000000240027001F
:100070002A0000000000250028002B0000000000DE
:1000800023002600290004040404040404040202DA
:100090000202020203030303030301020408102007
:1000A0004080010204081020010204081020000012
:1000B0000008000201000003040700000000000027
:1000C000000011241FBECFEFD8E0DEBFCDBF21E07E
:1000D000A0E0B1E001C01D92A930B207E1F70E9493
:1000E00011010C94CB010C940000833081F028F4B2
:1000F000813099F08230A9F008958730A9F08830D6
:10010000C9F08430B1F4809180008F7D03C080916C
:1001100080008F7780938000089584B58F7784BDA9
:10012000089584B58F7DFBCF8091B0008F77809349
:10013000B00008958091B0008F7DF9CFCF93DF9309
:10014000282F30E0F901E255FF4F8491F901E6567E
:10015000FF4FD491F901EA57FF4FC491CC23A1F08E
:1001600081110E947500EC2FF0E0EE0FFF1FE458A4
:10017000FF4FA591B491EC91ED2381E090E009F45B
:1001800080E0DF91CF91089580E090E0FACF1F9258
:100190000F920FB60F9211242F933F938F939F933B
:1001A000AF93BF938091050190910601A091070143
:1001B000B09108013091040123E0230F2D3758F549
:1001C0000196A11DB11D2093040180930501909318
:1001D0000601A0930701B09308018091000190915E
:1001E0000101A0910201B09103010196A11DB11D71
:1001F0008093000190930101A0930201B093030149
:10020000BF91AF919F918F913F912F910F900FBE12
:100210000F901F90189526E8230F0296A11DB11D7F
:10022000D2CF789484B5826084BD84B5816084BD6A
:1002300085B5826085BD85B5816085BD80916E0084
:10024000816080936E0010928100809181008260B5
:1002500080938100809181008160809381008091F2
:1002600080008160809380008091B10084608093E1
:10027000B1008091B00081608093B00080917A00DD
:10028000846080937A0080917A00826080937A0003
:1002900080917A00816080937A0080917A008068F2
:1002A00080937A001092C100ECE9F0E02491E8E834
:1002B000F0E084918823C1F090E0880F991FFC0141
:1002C000E859FF4FC591D491FC01EE58FF4FA5911D
:1002D000B4919FB7F8948881E22FE0958E238883AC
:1002E0008C91E823EC939FBFCDE9D0E0FE012491EF
:1002F00009E810E0F8018491882399F090E0880FD4
:10030000991FFC01E859FF4FA591B491FC01EE58EB
:10031000FF4F859194918FB7F8949C91292B2C9342
:100320008FBF91EBE92E90E0F92E20E0C22E20E065
:10033000D22E82E00E949E00892BD9F383E00E9496
:100340009E005C01F7018491FE019490F801849075
:100350008820A1F081110E947500E82DF0E0EE0FD9
:10036000FF1FEE58FF4FA591B4918FB7F8949C9161
:10037000AB2879F0909499229C928FBF82E00E94E2
:100380009E000197D9F3C114D10499F20E94000094
:0A039000D0CF992AF1CFF894FFCFE7
:00000001FF
